Archive member included to satisfy reference by file (symbol)

c:/ac6/systemworkbench/plugins/fr.ac6.mcu.externaltools.arm-none.win32_1.17.0.201812190825/tools/compiler/bin/../lib/gcc/arm-none-eabi/7.3.1/thumb/v7e-m/fpv4-sp/hard\libgcc.a(_arm_addsubdf3.o)
                              Application/User/main.o (__aeabi_dsub)
c:/ac6/systemworkbench/plugins/fr.ac6.mcu.externaltools.arm-none.win32_1.17.0.201812190825/tools/compiler/bin/../lib/gcc/arm-none-eabi/7.3.1/thumb/v7e-m/fpv4-sp/hard\libgcc.a(_arm_muldivdf3.o)
                              Application/User/main.o (__aeabi_dmul)
c:/ac6/systemworkbench/plugins/fr.ac6.mcu.externaltools.arm-none.win32_1.17.0.201812190825/tools/compiler/bin/../lib/gcc/arm-none-eabi/7.3.1/thumb/v7e-m/fpv4-sp/hard\libgcc.a(_arm_cmpdf2.o)
                              Application/User/main.o (__aeabi_dcmplt)
c:/ac6/systemworkbench/plugins/fr.ac6.mcu.externaltools.arm-none.win32_1.17.0.201812190825/tools/compiler/bin/../lib/gcc/arm-none-eabi/7.3.1/thumb/v7e-m/fpv4-sp/hard\libgcc.a(_arm_fixdfsi.o)
                              Application/User/main.o (__aeabi_d2iz)
c:/ac6/systemworkbench/plugins/fr.ac6.mcu.externaltools.arm-none.win32_1.17.0.201812190825/tools/compiler/bin/../lib/gcc/arm-none-eabi/7.3.1/thumb/v7e-m/fpv4-sp/hard\libgcc.a(_arm_fixunsdfsi.o)
                              Application/User/main.o (__aeabi_d2uiz)
c:/ac6/systemworkbench/plugins/fr.ac6.mcu.externaltools.arm-none.win32_1.17.0.201812190825/tools/compiler/bin/../lib/gcc/arm-none-eabi/7.3.1/thumb/v7e-m/fpv4-sp/hard\libgcc.a(_aeabi_ldivmod.o)
                              Drivers/STM32L4xx_HAL_Driver/stm32l4xx_hal_uart.o (__aeabi_ldivmod)
c:/ac6/systemworkbench/plugins/fr.ac6.mcu.externaltools.arm-none.win32_1.17.0.201812190825/tools/compiler/bin/../lib/gcc/arm-none-eabi/7.3.1/thumb/v7e-m/fpv4-sp/hard\libgcc.a(_aeabi_uldivmod.o)
                              Drivers/STM32L4xx_HAL_Driver/stm32l4xx_hal_uart.o (__aeabi_uldivmod)
c:/ac6/systemworkbench/plugins/fr.ac6.mcu.externaltools.arm-none.win32_1.17.0.201812190825/tools/compiler/bin/../lib/gcc/arm-none-eabi/7.3.1/thumb/v7e-m/fpv4-sp/hard\libgcc.a(_udivmoddi4.o)
                              c:/ac6/systemworkbench/plugins/fr.ac6.mcu.externaltools.arm-none.win32_1.17.0.201812190825/tools/compiler/bin/../lib/gcc/arm-none-eabi/7.3.1/thumb/v7e-m/fpv4-sp/hard\libgcc.a(_aeabi_ldivmod.o) (__udivmoddi4)
c:/ac6/systemworkbench/plugins/fr.ac6.mcu.externaltools.arm-none.win32_1.17.0.201812190825/tools/compiler/bin/../lib/gcc/arm-none-eabi/7.3.1/thumb/v7e-m/fpv4-sp/hard\libgcc.a(_dvmd_tls.o)
                              c:/ac6/systemworkbench/plugins/fr.ac6.mcu.externaltools.arm-none.win32_1.17.0.201812190825/tools/compiler/bin/../lib/gcc/arm-none-eabi/7.3.1/thumb/v7e-m/fpv4-sp/hard\libgcc.a(_aeabi_ldivmod.o) (__aeabi_ldiv0)
c:/ac6/systemworkbench/plugins/fr.ac6.mcu.externaltools.arm-none.win32_1.17.0.201812190825/tools/compiler/bin/../lib/gcc/arm-none-eabi/7.3.1/../../../../arm-none-eabi/lib/thumb/v7e-m/fpv4-sp/hard\libc_nano.a(lib_a-errno.o)
                              Application/SW4STM32/syscalls.o (__errno)
c:/ac6/systemworkbench/plugins/fr.ac6.mcu.externaltools.arm-none.win32_1.17.0.201812190825/tools/compiler/bin/../lib/gcc/arm-none-eabi/7.3.1/../../../../arm-none-eabi/lib/thumb/v7e-m/fpv4-sp/hard\libc_nano.a(lib_a-exit.o)
                              c:/ac6/systemworkbench/plugins/fr.ac6.mcu.externaltools.arm-none.win32_1.17.0.201812190825/tools/compiler/bin/../lib/gcc/arm-none-eabi/7.3.1/../../../../arm-none-eabi/lib/thumb/v7e-m/fpv4-sp/hard/crt0.o (exit)
c:/ac6/systemworkbench/plugins/fr.ac6.mcu.externaltools.arm-none.win32_1.17.0.201812190825/tools/compiler/bin/../lib/gcc/arm-none-eabi/7.3.1/../../../../arm-none-eabi/lib/thumb/v7e-m/fpv4-sp/hard\libc_nano.a(lib_a-impure.o)
                              c:/ac6/systemworkbench/plugins/fr.ac6.mcu.externaltools.arm-none.win32_1.17.0.201812190825/tools/compiler/bin/../lib/gcc/arm-none-eabi/7.3.1/../../../../arm-none-eabi/lib/thumb/v7e-m/fpv4-sp/hard\libc_nano.a(lib_a-exit.o) (_global_impure_ptr)
c:/ac6/systemworkbench/plugins/fr.ac6.mcu.externaltools.arm-none.win32_1.17.0.201812190825/tools/compiler/bin/../lib/gcc/arm-none-eabi/7.3.1/../../../../arm-none-eabi/lib/thumb/v7e-m/fpv4-sp/hard\libc_nano.a(lib_a-init.o)
                              c:/ac6/systemworkbench/plugins/fr.ac6.mcu.externaltools.arm-none.win32_1.17.0.201812190825/tools/compiler/bin/../lib/gcc/arm-none-eabi/7.3.1/../../../../arm-none-eabi/lib/thumb/v7e-m/fpv4-sp/hard/crt0.o (__libc_init_array)
c:/ac6/systemworkbench/plugins/fr.ac6.mcu.externaltools.arm-none.win32_1.17.0.201812190825/tools/compiler/bin/../lib/gcc/arm-none-eabi/7.3.1/../../../../arm-none-eabi/lib/thumb/v7e-m/fpv4-sp/hard\libc_nano.a(lib_a-memset.o)
                              c:/ac6/systemworkbench/plugins/fr.ac6.mcu.externaltools.arm-none.win32_1.17.0.201812190825/tools/compiler/bin/../lib/gcc/arm-none-eabi/7.3.1/../../../../arm-none-eabi/lib/thumb/v7e-m/fpv4-sp/hard/crt0.o (memset)

Allocating common symbols
Common symbol       size              file

Pomiary             0x12              Application/User/main.o
uart_data2          0x1               Application/User/main.o
hdma_usart2_rx      0x48              Application/User/main.o
j                   0x1               Application/User/main.o
htim8               0x40              Application/User/main.o
htim4               0x40              Application/User/main.o
htim15              0x40              Application/User/main.o
sl                  0x8               Application/User/main.o
Rx_data             0x2               Application/User/main.o
uwTick              0x4               Drivers/STM32L4xx_HAL_Driver/stm32l4xx_hal.o
uart_data           0x1               Application/User/main.o
hadc1               0x64              Application/User/main.o
i                   0x1               Application/User/main.o
sterowanie          0x8               Application/User/main.o
lastErr             0x8               Application/User/main.o
hdma_adc1           0x48              Application/User/main.o
err                 0x8               Application/User/main.o
uart_data3          0x1               Application/User/main.o
huart4              0x80              Application/User/main.o
huart2              0x80              Application/User/main.o
sr                  0x8               Application/User/main.o
sensors             0x7               Application/User/main.o
uart_data1          0x1               Application/User/main.o

Discarded input sections

 .text          0x00000000        0x0 c:/ac6/systemworkbench/plugins/fr.ac6.mcu.externaltools.arm-none.win32_1.17.0.201812190825/tools/compiler/bin/../lib/gcc/arm-none-eabi/7.3.1/thumb/v7e-m/fpv4-sp/hard/crti.o
 .data          0x00000000        0x0 c:/ac6/systemworkbench/plugins/fr.ac6.mcu.externaltools.arm-none.win32_1.17.0.201812190825/tools/compiler/bin/../lib/gcc/arm-none-eabi/7.3.1/thumb/v7e-m/fpv4-sp/hard/crti.o
 .bss           0x00000000        0x0 c:/ac6/systemworkbench/plugins/fr.ac6.mcu.externaltools.arm-none.win32_1.17.0.201812190825/tools/compiler/bin/../lib/gcc/arm-none-eabi/7.3.1/thumb/v7e-m/fpv4-sp/hard/crti.o
 .data          0x00000000        0x4 c:/ac6/systemworkbench/plugins/fr.ac6.mcu.externaltools.arm-none.win32_1.17.0.201812190825/tools/compiler/bin/../lib/gcc/arm-none-eabi/7.3.1/thumb/v7e-m/fpv4-sp/hard/crtbegin.o
 .text          0x00000000       0x74 c:/ac6/systemworkbench/plugins/fr.ac6.mcu.externaltools.arm-none.win32_1.17.0.201812190825/tools/compiler/bin/../lib/gcc/arm-none-eabi/7.3.1/../../../../arm-none-eabi/lib/thumb/v7e-m/fpv4-sp/hard/crt0.o
 .data          0x00000000        0x0 c:/ac6/systemworkbench/plugins/fr.ac6.mcu.externaltools.arm-none.win32_1.17.0.201812190825/tools/compiler/bin/../lib/gcc/arm-none-eabi/7.3.1/../../../../arm-none-eabi/lib/thumb/v7e-m/fpv4-sp/hard/crt0.o
 .bss           0x00000000        0x0 c:/ac6/systemworkbench/plugins/fr.ac6.mcu.externaltools.arm-none.win32_1.17.0.201812190825/tools/compiler/bin/../lib/gcc/arm-none-eabi/7.3.1/../../../../arm-none-eabi/lib/thumb/v7e-m/fpv4-sp/hard/crt0.o
 .ARM.extab     0x00000000        0x0 c:/ac6/systemworkbench/plugins/fr.ac6.mcu.externaltools.arm-none.win32_1.17.0.201812190825/tools/compiler/bin/../lib/gcc/arm-none-eabi/7.3.1/../../../../arm-none-eabi/lib/thumb/v7e-m/fpv4-sp/hard/crt0.o
 .ARM.exidx     0x00000000        0x8 c:/ac6/systemworkbench/plugins/fr.ac6.mcu.externaltools.arm-none.win32_1.17.0.201812190825/tools/compiler/bin/../lib/gcc/arm-none-eabi/7.3.1/../../../../arm-none-eabi/lib/thumb/v7e-m/fpv4-sp/hard/crt0.o
 .ARM.attributes
                0x00000000       0x20 c:/ac6/systemworkbench/plugins/fr.ac6.mcu.externaltools.arm-none.win32_1.17.0.201812190825/tools/compiler/bin/../lib/gcc/arm-none-eabi/7.3.1/../../../../arm-none-eabi/lib/thumb/v7e-m/fpv4-sp/hard/crt0.o
 .text          0x00000000       0x14 Application/SW4STM32/startup_stm32l476xx.o
 .data          0x00000000        0x0 Application/SW4STM32/startup_stm32l476xx.o
 .bss           0x00000000        0x0 Application/SW4STM32/startup_stm32l476xx.o
 .group         0x00000000        0xc Application/SW4STM32/syscalls.o
 .group         0x00000000        0xc Application/SW4STM32/syscalls.o
 .group         0x00000000        0xc Application/SW4STM32/syscalls.o
 .group         0x00000000        0xc Application/SW4STM32/syscalls.o
Memory Configuration

Name             Origin             Length             Attributes
RAM              0x20000000         0x00018000         xrw
RAM2             0x10000000         0x00008000         xrw
FLASH            0x08000000         0x00100000         xr
*default*        0x00000000         0xffffffff

Linker script and memory map

LOAD c:/ac6/systemworkbench/plugins/fr.ac6.mcu.externaltools.arm-none.win32_1.17.0.201812190825/tools/compiler/bin/../lib/gcc/arm-none-eabi/7.3.1/thumb/v7e-m/fpv4-sp/hard/crti.o
LOAD c:/ac6/systemworkbench/plugins/fr.ac6.mcu.externaltools.arm-none.win32_1.17.0.201812190825/tools/compiler/bin/../lib/gcc/arm-none-eabi/7.3.1/thumb/v7e-m/fpv4-sp/hard/crtbegin.o
LOAD c:/ac6/systemworkbench/plugins/fr.ac6.mcu.externaltools.arm-none.win32_1.17.0.201812190825/tools/compiler/bin/../lib/gcc/arm-none-eabi/7.3.1/../../../../arm-none-eabi/lib/thumb/v7e-m/fpv4-sp/hard/crt0.o
LOAD Application/SW4STM32/startup_stm32l476xx.o
LOAD Application/SW4STM32/syscalls.o
LOAD Application/User/main.o
LOAD Application/User/stm32l4xx_hal_msp.o
LOAD Application/User/stm32l4xx_it.o
LOAD Drivers/CMSIS/system_stm32l4xx.o
LOAD Drivers/STM32L4xx_HAL_Driver/stm32l4xx_hal.o
LOAD Drivers/STM32L4xx_HAL_Driver/stm32l4xx_hal_adc.o
LOAD Drivers/STM32L4xx_HAL_Driver/stm32l4xx_hal_adc_ex.o
LOAD Drivers/STM32L4xx_HAL_Driver/stm32l4xx_hal_cortex.o
LOAD Drivers/STM32L4xx_HAL_Driver/stm32l4xx_hal_dma.o
LOAD Drivers/STM32L4xx_HAL_Driver/stm32l4xx_hal_dma_ex.o
LOAD Drivers/STM32L4xx_HAL_Driver/stm32l4xx_hal_exti.o
LOAD Drivers/STM32L4xx_HAL_Driver/stm32l4xx_hal_flash.o
LOAD Drivers/STM32L4xx_HAL_Driver/stm32l4xx_hal_flash_ex.o
LOAD Drivers/STM32L4xx_HAL_Driver/stm32l4xx_hal_flash_ramfunc.o
LOAD Drivers/STM32L4xx_HAL_Driver/stm32l4xx_hal_gpio.o
LOAD Drivers/STM32L4xx_HAL_Driver/stm32l4xx_hal_i2c.o
LOAD Drivers/STM32L4xx_HAL_Driver/stm32l4xx_hal_i2c_ex.o
LOAD Drivers/STM32L4xx_HAL_Driver/stm32l4xx_hal_pwr.o
LOAD Drivers/STM32L4xx_HAL_Driver/stm32l4xx_hal_pwr_ex.o
LOAD Drivers/STM32L4xx_HAL_Driver/stm32l4xx_hal_rcc.o
LOAD Drivers/STM32L4xx_HAL_Driver/stm32l4xx_hal_rcc_ex.o
LOAD Drivers/STM32L4xx_HAL_Driver/stm32l4xx_hal_tim.o
LOAD Drivers/STM32L4xx_HAL_Driver/stm32l4xx_hal_tim_ex.o
LOAD Drivers/STM32L4xx_HAL_Driver/stm32l4xx_hal_uart.o
LOAD Drivers/STM32L4xx_HAL_Driver/stm32l4xx_hal_uart_ex.o
LOAD c:/ac6/systemworkbench/plugins/fr.ac6.mcu.externaltools.arm-none.win32_1.17.0.201812190825/tools/compiler/bin/../lib/gcc/arm-none-eabi/7.3.1/../../../../arm-none-eabi/lib/thumb/v7e-m/fpv4-sp/hard\libm.a
START GROUP
LOAD c:/ac6/systemworkbench/plugins/fr.ac6.mcu.externaltools.arm-none.win32_1.17.0.201812190825/tools/compiler/bin/../lib/gcc/arm-none-eabi/7.3.1/thumb/v7e-m/fpv4-sp/hard\libgcc.a
LOAD c:/ac6/systemworkbench/plugins/fr.ac6.mcu.externaltools.arm-none.win32_1.17.0.201812190825/tools/compiler/bin/../lib/gcc/arm-none-eabi/7.3.1/../../../../arm-none-eabi/lib/thumb/v7e-m/fpv4-sp/hard\libc_nano.a
END GROUP
START GROUP
LOAD c:/ac6/systemworkbench/plugins/fr.ac6.mcu.externaltools.arm-none.win32_1.17.0.201812190825/tools/compiler/bin/../lib/gcc/arm-none-eabi/7.3.1/thumb/v7e-m/fpv4-sp/hard\libgcc.a
LOAD c:/ac6/systemworkbench/plugins/fr.ac6.mcu.externaltools.arm-none.win32_1.17.0.201812190825/tools/compiler/bin/../lib/gcc/arm-none-eabi/7.3.1/../../../../arm-none-eabi/lib/thumb/v7e-m/fpv4-sp/hard\libc_nano.a
LOAD c:/ac6/systemworkbench/plugins/fr.ac6.mcu.externaltools.arm-none.win32_1.17.0.201812190825/tools/compiler/bin/../lib/gcc/arm-none-eabi/7.3.1/../../../../arm-none-eabi/lib/thumb/v7e-m/fpv4-sp/hard\libnosys.a
END GROUP
START GROUP
LOAD c:/ac6/systemworkbench/plugins/fr.ac6.mcu.externaltools.arm-none.win32_1.17.0.201812190825/tools/compiler/bin/../lib/gcc/arm-none-eabi/7.3.1/thumb/v7e-m/fpv4-sp/hard\libgcc.a
LOAD c:/ac6/systemworkbench/plugins/fr.ac6.mcu.externaltools.arm-none.win32_1.17.0.201812190825/tools/compiler/bin/../lib/gcc/arm-none-eabi/7.3.1/../../../../arm-none-eabi/lib/thumb/v7e-m/fpv4-sp/hard\libc_nano.a
LOAD c:/ac6/systemworkbench/plugins/fr.ac6.mcu.externaltools.arm-none.win32_1.17.0.201812190825/tools/compiler/bin/../lib/gcc/arm-none-eabi/7.3.1/../../../../arm-none-eabi/lib/thumb/v7e-m/fpv4-sp/hard\libnosys.a
END GROUP
LOAD c:/ac6/systemworkbench/plugins/fr.ac6.mcu.externaltools.arm-none.win32_1.17.0.201812190825/tools/compiler/bin/../lib/gcc/arm-none-eabi/7.3.1/thumb/v7e-m/fpv4-sp/hard/crtend.o
LOAD c:/ac6/systemworkbench/plugins/fr.ac6.mcu.externaltools.arm-none.win32_1.17.0.201812190825/tools/compiler/bin/../lib/gcc/arm-none-eabi/7.3.1/thumb/v7e-m/fpv4-sp/hard/crtn.o
                0x20018000                _estack = 0x20018000
                0x00000200                _Min_Heap_Size = 0x200
                0x00000400                _Min_Stack_Size = 0x400

.isr_vector     0x08000000      0x188
                0x08000000                . = ALIGN (0x8)
 *(.isr_vector)
 .isr_vector    0x08000000      0x188 Application/SW4STM32/startup_stm32l476xx.o
                0x08000000                g_pfnVectors
                0x08000188                . = ALIGN (0x8)

.text           0x08000188     0x4b90
                0x08000188                . = ALIGN (0x8)
 *(.text)
 .text          0x08000188       0x40 c:/ac6/systemworkbench/plugins/fr.ac6.mcu.externaltools.arm-none.win32_1.17.0.201812190825/tools/compiler/bin/../lib/gcc/arm-none-eabi/7.3.1/thumb/v7e-m/fpv4-sp/hard/crtbegin.o
 .text          0x080001c8      0x378 c:/ac6/systemworkbench/plugins/fr.ac6.mcu.externaltools.arm-none.win32_1.17.0.201812190825/tools/compiler/bin/../lib/gcc/arm-none-eabi/7.3.1/thumb/v7e-m/fpv4-sp/hard\libgcc.a(_arm_addsubdf3.o)
                0x080001c8                __aeabi_drsub
                0x080001d0                __aeabi_dsub
                0x080001d0                __subdf3
                0x080001d4                __aeabi_dadd
                0x080001d4                __adddf3
                0x0800044c                __floatunsidf
                0x0800044c                __aeabi_ui2d
                0x0800046c                __floatsidf
                0x0800046c                __aeabi_i2d
                0x08000490                __aeabi_f2d
                0x08000490                __extendsfdf2
                0x080004d4                __floatundidf
                0x080004d4                __aeabi_ul2d
                0x080004e4                __floatdidf
                0x080004e4                __aeabi_l2d
 .text          0x08000540      0x424 c:/ac6/systemworkbench/plugins/fr.ac6.mcu.externaltools.arm-none.win32_1.17.0.201812190825/tools/compiler/bin/../lib/gcc/arm-none-eabi/7.3.1/thumb/v7e-m/fpv4-sp/hard\libgcc.a(_arm_muldivdf3.o)
                0x08000540                __aeabi_dmul
                0x08000540                __muldf3
                0x08000794                __divdf3
                0x08000794                __aeabi_ddiv
 .text          0x08000964      0x110 c:/ac6/systemworkbench/plugins/fr.ac6.mcu.externaltools.arm-none.win32_1.17.0.201812190825/tools/compiler/bin/../lib/gcc/arm-none-eabi/7.3.1/thumb/v7e-m/fpv4-sp/hard\libgcc.a(_arm_cmpdf2.o)
                0x08000964                __gtdf2
                0x08000964                __gedf2
                0x0800096c                __ltdf2
                0x0800096c                __ledf2
                0x08000974                __nedf2
                0x08000974                __eqdf2
                0x08000974                __cmpdf2
                0x080009f0                __aeabi_cdrcmple
                0x08000a00                __aeabi_cdcmpeq
                0x08000a00                __aeabi_cdcmple
                0x08000a10                __aeabi_dcmpeq
                0x08000a24                __aeabi_dcmplt
                0x08000a38                __aeabi_dcmple
                0x08000a4c                __aeabi_dcmpge
                0x08000a60                __aeabi_dcmpgt
 .text          0x08000a74       0x50 c:/ac6/systemworkbench/plugins/fr.ac6.mcu.externaltools.arm-none.win32_1.17.0.201812190825/tools/compiler/bin/../lib/gcc/arm-none-eabi/7.3.1/thumb/v7e-m/fpv4-sp/hard\libgcc.a(_arm_fixdfsi.o)
                0x08000a74                __aeabi_d2iz
                0x08000a74                __fixdfsi
 .text          0x08000ac4       0x40 c:/ac6/systemworkbench/plugins/fr.ac6.mcu.externaltools.arm-none.win32_1.17.0.201812190825/tools/compiler/bin/../lib/gcc/arm-none-eabi/7.3.1/thumb/v7e-m/fpv4-sp/hard\libgcc.a(_arm_fixunsdfsi.o)
                0x08000ac4                __aeabi_d2uiz
                0x08000ac4                __fixunsdfsi
 .text          0x08000b04       0x30 c:/ac6/systemworkbench/plugins/fr.ac6.mcu.externaltools.arm-none.win32_1.17.0.201812190825/tools/compiler/bin/../lib/gcc/arm-none-eabi/7.3.1/thumb/v7e-m/fpv4-sp/hard\libgcc.a(_aeabi_uldivmod.o)
                0x08000b04                __aeabi_uldivmod
 .text          0x08000b34      0x2cc c:/ac6/systemworkbench/plugins/fr.ac6.mcu.externaltools.arm-none.win32_1.17.0.201812190825/tools/compiler/bin/../lib/gcc/arm-none-eabi/7.3.1/thumb/v7e-m/fpv4-sp/hard\libgcc.a(_udivmoddi4.o)
                0x08000b34                __udivmoddi4
 .text          0x08000e00        0x4 c:/ac6/systemworkbench/plugins/fr.ac6.mcu.externaltools.arm-none.win32_1.17.0.201812190825/tools/compiler/bin/../lib/gcc/arm-none-eabi/7.3.1/thumb/v7e-m/fpv4-sp/hard\libgcc.a(_dvmd_tls.o)
                0x08000e00                __aeabi_idiv0
                0x08000e00                __aeabi_ldiv0
 *(.text*)
 .text.Reset_Handler
                0x08000e04       0x50 Application/SW4STM32/startup_stm32l476xx.o
                0x08000e04                Reset_Handler
 .text.Default_Handler
                0x08000e54        0x2 Application/SW4STM32/startup_stm32l476xx.o
                0x08000e54                RTC_Alarm_IRQHandler
                0x08000e54                EXTI2_IRQHandler
                0x08000e54                TIM8_TRG_COM_IRQHandler
                0x08000e54                TIM8_CC_IRQHandler
                0x08000e54                DebugMon_Handler
                0x08000e54                TIM1_CC_IRQHandler
                0x08000e54                TSC_IRQHandler
                0x08000e54                HardFault_Handler
                0x08000e54                TAMP_STAMP_IRQHandler
                0x08000e54                PendSV_Handler
                0x08000e54                NMI_Handler
                0x08000e54                EXTI3_IRQHandler
                0x08000e54                LPTIM2_IRQHandler
                0x08000e54                DFSDM1_FLT1_IRQHandler
                0x08000e54                I2C3_ER_IRQHandler
                0x08000e54                DFSDM1_FLT2_IRQHandler
                0x08000e54                EXTI0_IRQHandler
                0x08000e54                I2C2_EV_IRQHandler
                0x08000e54                CAN1_RX0_IRQHandler
                0x08000e54                FPU_IRQHandler
                0x08000e54                TIM1_UP_TIM16_IRQHandler
                0x08000e54                UsageFault_Handler
                0x08000e54                ADC1_2_IRQHandler
                0x08000e54                SPI1_IRQHandler
                0x08000e54                TIM6_DAC_IRQHandler
                0x08000e54                TIM8_UP_IRQHandler
                0x08000e54                DMA2_Channel2_IRQHandler
                0x08000e54                DMA1_Channel4_IRQHandler
                0x08000e54                SAI2_IRQHandler
                0x08000e54                DFSDM1_FLT3_IRQHandler
                0x08000e54                USART3_IRQHandler
                0x08000e54                DMA1_Channel7_IRQHandler
                0x08000e54                CAN1_RX1_IRQHandler
                0x08000e54                LCD_IRQHandler
                0x08000e54                UART5_IRQHandler
                0x08000e54                ADC3_IRQHandler
                0x08000e54                TIM4_IRQHandler
                0x08000e54                DMA2_Channel1_IRQHandler
                0x08000e54                QUADSPI_IRQHandler
                0x08000e54                I2C1_EV_IRQHandler
                0x08000e54                UART4_IRQHandler
                0x08000e54                DMA2_Channel4_IRQHandler
                0x08000e54                TIM3_IRQHandler
                0x08000e54                RCC_IRQHandler
                0x08000e54                Default_Handler
                0x08000e54                DMA2_Channel7_IRQHandler
                0x08000e54                EXTI15_10_IRQHandler
                0x08000e54                TIM7_IRQHandler
                0x08000e54                SDMMC1_IRQHandler
                0x08000e54                TIM5_IRQHandler
                0x08000e54                I2C3_EV_IRQHandler
                0x08000e54                EXTI9_5_IRQHandler
                0x08000e54                RTC_WKUP_IRQHandler
                0x08000e54                PVD_PVM_IRQHandler
                0x08000e54                SPI2_IRQHandler
                0x08000e54                MemManage_Handler
                0x08000e54                CAN1_TX_IRQHandler
                0x08000e54                SVC_Handler
                0x08000e54                DMA2_Channel5_IRQHandler
                0x08000e54                DMA1_Channel5_IRQHandler
                0x08000e54                EXTI4_IRQHandler
                0x08000e54                RNG_IRQHandler
                0x08000e54                TIM1_TRG_COM_TIM17_IRQHandler
                0x08000e54                DMA1_Channel3_IRQHandler
                0x08000e54                COMP_IRQHandler
                0x08000e54                WWDG_IRQHandler
                0x08000e54                LPUART1_IRQHandler
                0x08000e54                DMA2_Channel6_IRQHandler
                0x08000e54                TIM2_IRQHandler
                0x08000e54                EXTI1_IRQHandler
                0x08000e54                USART2_IRQHandler
                0x08000e54                DFSDM1_FLT0_IRQHandler
                0x08000e54                I2C2_ER_IRQHandler
                0x08000e54                DMA1_Channel2_IRQHandler
                0x08000e54                TIM8_BRK_IRQHandler
                0x08000e54                CAN1_SCE_IRQHandler
                0x08000e54                FLASH_IRQHandler
                0x08000e54                BusFault_Handler
                0x08000e54                USART1_IRQHandler
                0x08000e54                OTG_FS_IRQHandler
                0x08000e54                SPI3_IRQHandler
                0x08000e54                I2C1_ER_IRQHandler
                0x08000e54                FMC_IRQHandler
                0x08000e54                SWPMI1_IRQHandler
                0x08000e54                LPTIM1_IRQHandler
                0x08000e54                SAI1_IRQHandler
                0x08000e54                DMA2_Channel3_IRQHandler
                0x08000e54                TIM1_BRK_TIM15_IRQHandler
 *fill*         0x08000e56        0x2 
 .text.GetSensorData
                0x08000e58       0xe8 Application/User/main.o
                0x08000e58                GetSensorData
 .text.CalculateError
                0x08000f40       0xfc Application/User/main.o
                0x08000f40                CalculateError
 .text.RegulatePID
                0x0800103c       0x70 Application/User/main.o
                0x0800103c                RegulatePID
 .text.HAL_UART_RxCpltCallback
                0x080010ac       0x14 Application/User/main.o
                0x080010ac                HAL_UART_RxCpltCallback
 .text.SystemClock_Config
                0x080010c0       0xac Application/User/main.o
                0x080010c0                SystemClock_Config
 *fill*         0x0800116c        0x4 
 .text.startup.main
                0x08001170      0x758 Application/User/main.o
                0x08001170                main
 .text.Error_Handler
                0x080018c8        0x4 Application/User/main.o
                0x080018c8                Error_Handler
 .text.HAL_MspInit
                0x080018cc       0x30 Application/User/stm32l4xx_hal_msp.o
                0x080018cc                HAL_MspInit
 .text.HAL_ADC_MspInit
                0x080018fc       0xec Application/User/stm32l4xx_hal_msp.o
                0x080018fc                HAL_ADC_MspInit
 .text.HAL_TIM_Base_MspInit
                0x080019e8       0xb4 Application/User/stm32l4xx_hal_msp.o
                0x080019e8                HAL_TIM_Base_MspInit
 .text.HAL_TIM_MspPostInit
                0x08001a9c       0x94 Application/User/stm32l4xx_hal_msp.o
                0x08001a9c                HAL_TIM_MspPostInit
 .text.HAL_UART_MspInit
                0x08001b30       0xf0 Application/User/stm32l4xx_hal_msp.o
                0x08001b30                HAL_UART_MspInit
 .text.SysTick_Handler
                0x08001c20        0x4 Application/User/stm32l4xx_it.o
                0x08001c20                SysTick_Handler
 .text.DMA1_Channel1_IRQHandler
                0x08001c24        0xc Application/User/stm32l4xx_it.o
                0x08001c24                DMA1_Channel1_IRQHandler
 .text.DMA1_Channel6_IRQHandler
                0x08001c30        0xc Application/User/stm32l4xx_it.o
                0x08001c30                DMA1_Channel6_IRQHandler
 .text.SystemInit
                0x08001c3c       0x50 Drivers/CMSIS/system_stm32l4xx.o
                0x08001c3c                SystemInit
 .text.HAL_InitTick
                0x08001c8c       0x48 Drivers/STM32L4xx_HAL_Driver/stm32l4xx_hal.o
                0x08001c8c                HAL_InitTick
 .text.HAL_Init
                0x08001cd4       0x38 Drivers/STM32L4xx_HAL_Driver/stm32l4xx_hal.o
                0x08001cd4                HAL_Init
 .text.HAL_IncTick
                0x08001d0c       0x18 Drivers/STM32L4xx_HAL_Driver/stm32l4xx_hal.o
                0x08001d0c                HAL_IncTick
 .text.HAL_GetTick
                0x08001d24        0xc Drivers/STM32L4xx_HAL_Driver/stm32l4xx_hal.o
                0x08001d24                HAL_GetTick
 .text.HAL_Delay
                0x08001d30       0x24 Drivers/STM32L4xx_HAL_Driver/stm32l4xx_hal.o
                0x08001d30                HAL_Delay
 .text.HAL_ADC_Init
                0x08001d54      0x1e0 Drivers/STM32L4xx_HAL_Driver/stm32l4xx_hal_adc.o
                0x08001d54                HAL_ADC_Init
 .text.HAL_ADC_ConvCpltCallback
                0x08001f34        0x4 Drivers/STM32L4xx_HAL_Driver/stm32l4xx_hal_adc.o
                0x08001f34                HAL_ADC_ConvCpltCallback
 .text.HAL_ADC_ConvHalfCpltCallback
                0x08001f38        0x4 Drivers/STM32L4xx_HAL_Driver/stm32l4xx_hal_adc.o
                0x08001f38                HAL_ADC_ConvHalfCpltCallback
 .text.ADC_DMAHalfConvCplt
                0x08001f3c        0xc Drivers/STM32L4xx_HAL_Driver/stm32l4xx_hal_adc.o
                0x08001f3c                ADC_DMAHalfConvCplt
 .text.HAL_ADC_ErrorCallback
                0x08001f48        0x4 Drivers/STM32L4xx_HAL_Driver/stm32l4xx_hal_adc.o
                0x08001f48                HAL_ADC_ErrorCallback
 .text.ADC_DMAConvCplt
                0x08001f4c       0x68 Drivers/STM32L4xx_HAL_Driver/stm32l4xx_hal_adc.o
                0x08001f4c                ADC_DMAConvCplt
 .text.ADC_DMAError
                0x08001fb4       0x1c Drivers/STM32L4xx_HAL_Driver/stm32l4xx_hal_adc.o
                0x08001fb4                ADC_DMAError
 .text.HAL_ADC_ConfigChannel
                0x08001fd0      0x418 Drivers/STM32L4xx_HAL_Driver/stm32l4xx_hal_adc.o
                0x08001fd0                HAL_ADC_ConfigChannel
 .text.ADC_Enable
                0x080023e8       0x84 Drivers/STM32L4xx_HAL_Driver/stm32l4xx_hal_adc.o
                0x080023e8                ADC_Enable
 .text.HAL_ADC_Start_DMA
                0x0800246c       0xec Drivers/STM32L4xx_HAL_Driver/stm32l4xx_hal_adc.o
                0x0800246c                HAL_ADC_Start_DMA
 .text.HAL_ADCEx_MultiModeConfigChannel
                0x08002558       0xdc Drivers/STM32L4xx_HAL_Driver/stm32l4xx_hal_adc_ex.o
                0x08002558                HAL_ADCEx_MultiModeConfigChannel
 .text.HAL_NVIC_SetPriorityGrouping
                0x08002634       0x24 Drivers/STM32L4xx_HAL_Driver/stm32l4xx_hal_cortex.o
                0x08002634                HAL_NVIC_SetPriorityGrouping
 .text.HAL_NVIC_SetPriority
                0x08002658       0x6c Drivers/STM32L4xx_HAL_Driver/stm32l4xx_hal_cortex.o
                0x08002658                HAL_NVIC_SetPriority
 .text.HAL_NVIC_EnableIRQ
                0x080026c4       0x1c Drivers/STM32L4xx_HAL_Driver/stm32l4xx_hal_cortex.o
                0x080026c4                HAL_NVIC_EnableIRQ
 .text.HAL_SYSTICK_Config
                0x080026e0       0x34 Drivers/STM32L4xx_HAL_Driver/stm32l4xx_hal_cortex.o
                0x080026e0                HAL_SYSTICK_Config
 .text.HAL_DMA_Init
                0x08002714       0xc0 Drivers/STM32L4xx_HAL_Driver/stm32l4xx_hal_dma.o
                0x08002714                HAL_DMA_Init
 .text.HAL_DMA_Start_IT
                0x080027d4       0x8c Drivers/STM32L4xx_HAL_Driver/stm32l4xx_hal_dma.o
                0x080027d4                HAL_DMA_Start_IT
 .text.HAL_DMA_IRQHandler
                0x08002860       0xa0 Drivers/STM32L4xx_HAL_Driver/stm32l4xx_hal_dma.o
                0x08002860                HAL_DMA_IRQHandler
 .text.HAL_GPIO_Init
                0x08002900      0x228 Drivers/STM32L4xx_HAL_Driver/stm32l4xx_hal_gpio.o
                0x08002900                HAL_GPIO_Init
 .text.HAL_GPIO_ReadPin
                0x08002b28        0xc Drivers/STM32L4xx_HAL_Driver/stm32l4xx_hal_gpio.o
                0x08002b28                HAL_GPIO_ReadPin
 .text.HAL_GPIO_WritePin
                0x08002b34        0xc Drivers/STM32L4xx_HAL_Driver/stm32l4xx_hal_gpio.o
                0x08002b34                HAL_GPIO_WritePin
 .text.HAL_PWREx_GetVoltageRange
                0x08002b40       0x10 Drivers/STM32L4xx_HAL_Driver/stm32l4xx_hal_pwr_ex.o
                0x08002b40                HAL_PWREx_GetVoltageRange
 .text.HAL_PWREx_ControlVoltageScaling
                0x08002b50       0x88 Drivers/STM32L4xx_HAL_Driver/stm32l4xx_hal_pwr_ex.o
                0x08002b50                HAL_PWREx_ControlVoltageScaling
 .text.RCC_SetFlashLatencyFromMSIRange
                0x08002bd8       0x8c Drivers/STM32L4xx_HAL_Driver/stm32l4xx_hal_rcc.o
 .text.HAL_RCC_GetSysClockFreq
                0x08002c64       0xb4 Drivers/STM32L4xx_HAL_Driver/stm32l4xx_hal_rcc.o
                0x08002c64                HAL_RCC_GetSysClockFreq
 .text.HAL_RCC_OscConfig
                0x08002d18      0x5c4 Drivers/STM32L4xx_HAL_Driver/stm32l4xx_hal_rcc.o
                0x08002d18                HAL_RCC_OscConfig
 .text.HAL_RCC_ClockConfig
                0x080032dc      0x130 Drivers/STM32L4xx_HAL_Driver/stm32l4xx_hal_rcc.o
                0x080032dc                HAL_RCC_ClockConfig
 .text.HAL_RCC_GetPCLK1Freq
                0x0800340c       0x24 Drivers/STM32L4xx_HAL_Driver/stm32l4xx_hal_rcc.o
                0x0800340c                HAL_RCC_GetPCLK1Freq
 .text.HAL_RCC_GetPCLK2Freq
                0x08003430       0x24 Drivers/STM32L4xx_HAL_Driver/stm32l4xx_hal_rcc.o
                0x08003430                HAL_RCC_GetPCLK2Freq
 .text.RCCEx_PLLSAI1_Config
                0x08003454      0x11c Drivers/STM32L4xx_HAL_Driver/stm32l4xx_hal_rcc_ex.o
 .text.RCCEx_PLLSAI2_Config
                0x08003570       0xfc Drivers/STM32L4xx_HAL_Driver/stm32l4xx_hal_rcc_ex.o
 .text.HAL_RCCEx_PeriphCLKConfig
                0x0800366c      0x420 Drivers/STM32L4xx_HAL_Driver/stm32l4xx_hal_rcc_ex.o
                0x0800366c                HAL_RCCEx_PeriphCLKConfig
 .text.TIM_OC1_SetConfig
                0x08003a8c       0x78 Drivers/STM32L4xx_HAL_Driver/stm32l4xx_hal_tim.o
 .text.TIM_OC3_SetConfig
                0x08003b04       0x80 Drivers/STM32L4xx_HAL_Driver/stm32l4xx_hal_tim.o
 .text.TIM_OC4_SetConfig
                0x08003b84       0x6c Drivers/STM32L4xx_HAL_Driver/stm32l4xx_hal_tim.o
 .text.TIM_OC5_SetConfig
                0x08003bf0       0x6c Drivers/STM32L4xx_HAL_Driver/stm32l4xx_hal_tim.o
 .text.TIM_OC6_SetConfig
                0x08003c5c       0x6c Drivers/STM32L4xx_HAL_Driver/stm32l4xx_hal_tim.o
 .text.TIM_SlaveTimer_SetConfig
                0x08003cc8       0xcc Drivers/STM32L4xx_HAL_Driver/stm32l4xx_hal_tim.o
 .text.HAL_TIM_OC_Start
                0x08003d94       0x74 Drivers/STM32L4xx_HAL_Driver/stm32l4xx_hal_tim.o
                0x08003d94                HAL_TIM_OC_Start
 .text.HAL_TIM_PWM_MspInit
                0x08003e08        0x4 Drivers/STM32L4xx_HAL_Driver/stm32l4xx_hal_tim.o
                0x08003e08                HAL_TIM_PWM_MspInit
 .text.HAL_TIM_PWM_Start
                0x08003e0c        0x4 Drivers/STM32L4xx_HAL_Driver/stm32l4xx_hal_tim.o
                0x08003e0c                HAL_TIM_PWM_Start
 .text.HAL_TIM_IC_MspInit
                0x08003e10        0x4 Drivers/STM32L4xx_HAL_Driver/stm32l4xx_hal_tim.o
                0x08003e10                HAL_TIM_IC_MspInit
 .text.HAL_TIM_ConfigClockSource
                0x08003e14      0x150 Drivers/STM32L4xx_HAL_Driver/stm32l4xx_hal_tim.o
                0x08003e14                HAL_TIM_ConfigClockSource
 .text.HAL_TIM_SlaveConfigSynchro
                0x08003f64       0x4c Drivers/STM32L4xx_HAL_Driver/stm32l4xx_hal_tim.o
                0x08003f64                HAL_TIM_SlaveConfigSynchro
 .text.TIM_Base_SetConfig
                0x08003fb0       0xec Drivers/STM32L4xx_HAL_Driver/stm32l4xx_hal_tim.o
                0x08003fb0                TIM_Base_SetConfig
 .text.HAL_TIM_Base_Init
                0x0800409c       0x38 Drivers/STM32L4xx_HAL_Driver/stm32l4xx_hal_tim.o
                0x0800409c                HAL_TIM_Base_Init
 .text.HAL_TIM_PWM_Init
                0x080040d4       0x38 Drivers/STM32L4xx_HAL_Driver/stm32l4xx_hal_tim.o
                0x080040d4                HAL_TIM_PWM_Init
 .text.HAL_TIM_IC_Init
                0x0800410c       0x38 Drivers/STM32L4xx_HAL_Driver/stm32l4xx_hal_tim.o
                0x0800410c                HAL_TIM_IC_Init
 .text.TIM_OC2_SetConfig
                0x08004144       0x80 Drivers/STM32L4xx_HAL_Driver/stm32l4xx_hal_tim.o
                0x08004144                TIM_OC2_SetConfig
 .text.HAL_TIM_PWM_ConfigChannel
                0x080041c4      0x164 Drivers/STM32L4xx_HAL_Driver/stm32l4xx_hal_tim.o
                0x080041c4                HAL_TIM_PWM_ConfigChannel
 .text.TIM_TI1_SetConfig
                0x08004328       0x70 Drivers/STM32L4xx_HAL_Driver/stm32l4xx_hal_tim.o
                0x08004328                TIM_TI1_SetConfig
 .text.HAL_TIM_IC_ConfigChannel
                0x08004398      0x114 Drivers/STM32L4xx_HAL_Driver/stm32l4xx_hal_tim.o
                0x08004398                HAL_TIM_IC_ConfigChannel
 .text.HAL_TIMEx_MasterConfigSynchronization
                0x080044ac       0xa4 Drivers/STM32L4xx_HAL_Driver/stm32l4xx_hal_tim_ex.o
                0x080044ac                HAL_TIMEx_MasterConfigSynchronization
 .text.HAL_TIMEx_ConfigBreakDeadTime
                0x08004550       0x8c Drivers/STM32L4xx_HAL_Driver/stm32l4xx_hal_tim_ex.o
                0x08004550                HAL_TIMEx_ConfigBreakDeadTime
 .text.HAL_UART_Receive_DMA
                0x080045dc       0xa8 Drivers/STM32L4xx_HAL_Driver/stm32l4xx_hal_uart.o
                0x080045dc                HAL_UART_Receive_DMA
 .text.UART_DMAReceiveCplt
                0x08004684       0x38 Drivers/STM32L4xx_HAL_Driver/stm32l4xx_hal_uart.o
 .text.HAL_UART_RxHalfCpltCallback
                0x080046bc        0x4 Drivers/STM32L4xx_HAL_Driver/stm32l4xx_hal_uart.o
                0x080046bc                HAL_UART_RxHalfCpltCallback
 .text.UART_DMARxHalfCplt
                0x080046c0        0xc Drivers/STM32L4xx_HAL_Driver/stm32l4xx_hal_uart.o
 .text.HAL_UART_ErrorCallback
                0x080046cc        0x4 Drivers/STM32L4xx_HAL_Driver/stm32l4xx_hal_uart.o
                0x080046cc                HAL_UART_ErrorCallback
 .text.UART_DMAError
                0x080046d0       0x60 Drivers/STM32L4xx_HAL_Driver/stm32l4xx_hal_uart.o
 .text.UART_SetConfig
                0x08004730      0x35c Drivers/STM32L4xx_HAL_Driver/stm32l4xx_hal_uart.o
                0x08004730                UART_SetConfig
 .text.UART_AdvFeatureConfig
                0x08004a8c       0xb0 Drivers/STM32L4xx_HAL_Driver/stm32l4xx_hal_uart.o
                0x08004a8c                UART_AdvFeatureConfig
 .text.UART_WaitOnFlagUntilTimeout
                0x08004b3c       0x9c Drivers/STM32L4xx_HAL_Driver/stm32l4xx_hal_uart.o
                0x08004b3c                UART_WaitOnFlagUntilTimeout
 .text.UART_CheckIdleState
                0x08004bd8       0x6c Drivers/STM32L4xx_HAL_Driver/stm32l4xx_hal_uart.o
                0x08004bd8                UART_CheckIdleState
 .text.HAL_UART_Init
                0x08004c44       0x64 Drivers/STM32L4xx_HAL_Driver/stm32l4xx_hal_uart.o
                0x08004c44                HAL_UART_Init
 .text.__libc_init_array
                0x08004ca8       0x48 c:/ac6/systemworkbench/plugins/fr.ac6.mcu.externaltools.arm-none.win32_1.17.0.201812190825/tools/compiler/bin/../lib/gcc/arm-none-eabi/7.3.1/../../../../arm-none-eabi/lib/thumb/v7e-m/fpv4-sp/hard\libc_nano.a(lib_a-init.o)
                0x08004ca8                __libc_init_array
 .text.memset   0x08004cf0       0x10 c:/ac6/systemworkbench/plugins/fr.ac6.mcu.externaltools.arm-none.win32_1.17.0.201812190825/tools/compiler/bin/../lib/gcc/arm-none-eabi/7.3.1/../../../../arm-none-eabi/lib/thumb/v7e-m/fpv4-sp/hard\libc_nano.a(lib_a-memset.o)
                0x08004cf0                memset
 *(.glue_7)
 .glue_7        0x08004d00        0x0 linker stubs
 *(.glue_7t)
 .glue_7t       0x08004d00        0x0 linker stubs
 *(.eh_frame)
 .eh_frame      0x08004d00        0x0 c:/ac6/systemworkbench/plugins/fr.ac6.mcu.externaltools.arm-none.win32_1.17.0.201812190825/tools/compiler/bin/../lib/gcc/arm-none-eabi/7.3.1/thumb/v7e-m/fpv4-sp/hard/crtbegin.o
 *(.init)
 .init          0x08004d00        0x4 c:/ac6/systemworkbench/plugins/fr.ac6.mcu.externaltools.arm-none.win32_1.17.0.201812190825/tools/compiler/bin/../lib/gcc/arm-none-eabi/7.3.1/thumb/v7e-m/fpv4-sp/hard/crti.o
                0x08004d00                _init
 .init          0x08004d04        0x8 c:/ac6/systemworkbench/plugins/fr.ac6.mcu.externaltools.arm-none.win32_1.17.0.201812190825/tools/compiler/bin/../lib/gcc/arm-none-eabi/7.3.1/thumb/v7e-m/fpv4-sp/hard/crtn.o
 *(.fini)
 .fini          0x08004d0c        0x4 c:/ac6/systemworkbench/plugins/fr.ac6.mcu.externaltools.arm-none.win32_1.17.0.201812190825/tools/compiler/bin/../lib/gcc/arm-none-eabi/7.3.1/thumb/v7e-m/fpv4-sp/hard/crti.o
                0x08004d0c                _fini
 .fini          0x08004d10        0x8 c:/ac6/systemworkbench/plugins/fr.ac6.mcu.externaltools.arm-none.win32_1.17.0.201812190825/tools/compiler/bin/../lib/gcc/arm-none-eabi/7.3.1/thumb/v7e-m/fpv4-sp/hard/crtn.o
                0x08004d18                . = ALIGN (0x8)
                0x08004d18                _etext = .

.vfp11_veneer   0x08004d18        0x0
 .vfp11_veneer  0x08004d18        0x0 linker stubs

.v4_bx          0x08004d18        0x0
 .v4_bx         0x08004d18        0x0 linker stubs

.iplt           0x08004d18        0x0
 .iplt          0x08004d18        0x0 c:/ac6/systemworkbench/plugins/fr.ac6.mcu.externaltools.arm-none.win32_1.17.0.201812190825/tools/compiler/bin/../lib/gcc/arm-none-eabi/7.3.1/thumb/v7e-m/fpv4-sp/hard/crtbegin.o

.rodata         0x08004d18       0x60
                0x08004d18                . = ALIGN (0x8)
 *(.rodata)
 .rodata        0x08004d18       0x48 Drivers/CMSIS/system_stm32l4xx.o
                0x08004d18                MSIRangeTable
                0x08004d48                AHBPrescTable
                0x08004d58                APBPrescTable
 .rodata        0x08004d60       0x14 Drivers/STM32L4xx_HAL_Driver/stm32l4xx_hal_uart.o
 *(.rodata*)
                0x08004d78                . = ALIGN (0x8)
 *fill*         0x08004d74        0x4 

.ARM.extab      0x08004d78        0x0
                0x08004d78                . = ALIGN (0x8)
 *(.ARM.extab* .gnu.linkonce.armextab.*)
                0x08004d78                . = ALIGN (0x8)

.ARM            0x08004d78        0x8
                0x08004d78                . = ALIGN (0x8)
                0x08004d78                __exidx_start = .
 *(.ARM.exidx*)
 .ARM.exidx     0x08004d78        0x8 c:/ac6/systemworkbench/plugins/fr.ac6.mcu.externaltools.arm-none.win32_1.17.0.201812190825/tools/compiler/bin/../lib/gcc/arm-none-eabi/7.3.1/thumb/v7e-m/fpv4-sp/hard\libgcc.a(_udivmoddi4.o)
                0x08004d80                __exidx_end = .
                0x08004d80                . = ALIGN (0x8)

.rel.dyn        0x08004d80        0x0
 .rel.iplt      0x08004d80        0x0 c:/ac6/systemworkbench/plugins/fr.ac6.mcu.externaltools.arm-none.win32_1.17.0.201812190825/tools/compiler/bin/../lib/gcc/arm-none-eabi/7.3.1/thumb/v7e-m/fpv4-sp/hard/crtbegin.o

.preinit_array  0x08004d80        0x0
                0x08004d80                . = ALIGN (0x8)
                0x08004d80                PROVIDE (__preinit_array_start = .)
 *(.preinit_array*)
                0x08004d80                PROVIDE (__preinit_array_end = .)
                0x08004d80                . = ALIGN (0x8)

.init_array     0x08004d80        0x8
                0x08004d80                . = ALIGN (0x8)
                0x08004d80                PROVIDE (__init_array_start = .)
 *(SORT_BY_NAME(.init_array.*))
 *(.init_array*)
 .init_array    0x08004d80        0x4 c:/ac6/systemworkbench/plugins/fr.ac6.mcu.externaltools.arm-none.win32_1.17.0.201812190825/tools/compiler/bin/../lib/gcc/arm-none-eabi/7.3.1/thumb/v7e-m/fpv4-sp/hard/crtbegin.o
                0x08004d84                PROVIDE (__init_array_end = .)
                0x08004d88                . = ALIGN (0x8)
 *fill*         0x08004d84        0x4 

.fini_array     0x08004d88        0x8
                0x08004d88                . = ALIGN (0x8)
                [!provide]                PROVIDE (__fini_array_start = .)
 *(SORT_BY_NAME(.fini_array.*))
 *(.fini_array*)
 .fini_array    0x08004d88        0x4 c:/ac6/systemworkbench/plugins/fr.ac6.mcu.externaltools.arm-none.win32_1.17.0.201812190825/tools/compiler/bin/../lib/gcc/arm-none-eabi/7.3.1/thumb/v7e-m/fpv4-sp/hard/crtbegin.o
                [!provide]                PROVIDE (__fini_array_end = .)
                0x08004d90                . = ALIGN (0x8)
 *fill*         0x08004d8c        0x4 
                0x08004d90                _sidata = LOADADDR (.data)

.data           0x20000000       0x48 load address 0x08004d90
                0x20000000                . = ALIGN (0x8)
                0x20000000                _sdata = .
 *(.data)
 .data          0x20000000       0x38 Application/User/main.o
                0x20000000                prog
                0x20000004                wagi
                0x20000020                Tp
                0x20000028                Td
                0x20000030                stala
                0x20000034                Turbina
 .data          0x20000038        0x4 Drivers/CMSIS/system_stm32l4xx.o
                0x20000038                SystemCoreClock
 .data          0x2000003c        0x8 Drivers/STM32L4xx_HAL_Driver/stm32l4xx_hal.o
                0x2000003c                uwTickFreq
                0x20000040                uwTickPrio
 *(.data*)
                0x20000048                . = ALIGN (0x8)
 *fill*         0x20000044        0x4 
                0x20000048                _edata = .

.igot.plt       0x20000048        0x0 load address 0x08004dd8
 .igot.plt      0x20000048        0x0 c:/ac6/systemworkbench/plugins/fr.ac6.mcu.externaltools.arm-none.win32_1.17.0.201812190825/tools/compiler/bin/../lib/gcc/arm-none-eabi/7.3.1/thumb/v7e-m/fpv4-sp/hard/crtbegin.o
                0x20000048                . = ALIGN (0x4)

.bss            0x20000048      0x35c load address 0x08004dd8
                0x20000048                _sbss = .
                0x20000048                __bss_start__ = _sbss
 *(.bss)
 .bss           0x20000048       0x1c c:/ac6/systemworkbench/plugins/fr.ac6.mcu.externaltools.arm-none.win32_1.17.0.201812190825/tools/compiler/bin/../lib/gcc/arm-none-eabi/7.3.1/thumb/v7e-m/fpv4-sp/hard/crtbegin.o
 *fill*         0x20000064        0x4 
 .bss           0x20000068       0x28 Application/User/main.o
                0x20000068                ilosc
                0x2000006c                przestrzelony
                0x20000070                pre
                0x20000074                bt_start
                0x20000078                czas
                0x2000007c                stop
                0x20000080                Ti
                0x20000088                intSum
 *(.bss*)
 *(COMMON)
 COMMON         0x20000090      0x310 Application/User/main.o
                0x20000090                Pomiary
                0x200000a2                uart_data2
                0x200000a4                hdma_usart2_rx
                0x200000ec                j
                0x200000f0                htim8
                0x20000130                htim4
                0x20000170                htim15
                0x200001b0                sl
                0x200001b8                Rx_data
                0x200001ba                uart_data
                0x200001bc                hadc1
                0x20000220                i
                0x20000228                sterowanie
                0x20000230                lastErr
                0x20000238                hdma_adc1
                0x20000280                err
                0x20000288                uart_data3
                0x2000028c                huart4
                0x2000030c                huart2
                0x20000390                sr
                0x20000398                sensors
                0x2000039f                uart_data1
 COMMON         0x200003a0        0x4 Drivers/STM32L4xx_HAL_Driver/stm32l4xx_hal.o
                0x200003a0                uwTick
                0x200003a4                . = ALIGN (0x4)
                0x200003a4                _ebss = .
                0x200003a4                __bss_end__ = _ebss

._user_heap_stack
                0x200003a4      0x604 load address 0x08004dd8
                0x200003a8                . = ALIGN (0x8)
 *fill*         0x200003a4        0x4 
                0x200003a8                PROVIDE (end = .)
                [!provide]                PROVIDE (_end = .)
                0x200005a8                . = (. + _Min_Heap_Size)
 *fill*         0x200003a8      0x200 
                0x200009a8                . = (. + _Min_Stack_Size)
 *fill*         0x200005a8      0x400 
                0x200009a8                . = ALIGN (0x8)

/DISCARD/
 libc.a(*)
 libm.a(*)
 libgcc.a(*)

.ARM.attributes
                0x00000000       0x30
 *(.ARM.attributes)
 .ARM.attributes
                0x00000000       0x22 c:/ac6/systemworkbench/plugins/fr.ac6.mcu.externaltools.arm-none.win32_1.17.0.201812190825/tools/compiler/bin/../lib/gcc/arm-none-eabi/7.3.1/thumb/v7e-m/fpv4-sp/hard/crti.o
 .ARM.attributes
                0x00000022       0x34 c:/ac6/systemworkbench/plugins/fr.ac6.mcu.externaltools.arm-none.win32_1.17.0.201812190825/tools/compiler/bin/../lib/gcc/arm-none-eabi/7.3.1/thumb/v7e-m/fpv4-sp/hard/crtbegin.o
 .ARM.attributes
                0x00000056       0x21 Application/SW4STM32/startup_stm32l476xx.o
 .ARM.attributes
                0x00000077       0x39 Application/User/main.o
 .ARM.attributes
                0x000000b0       0x39 Application/User/stm32l4xx_hal_msp.o
 .ARM.attributes
                0x000000e9       0x39 Application/User/stm32l4xx_it.o
 .ARM.attributes
                0x00000122       0x39 Drivers/CMSIS/system_stm32l4xx.o
 .ARM.attributes
                0x0000015b       0x39 Drivers/STM32L4xx_HAL_Driver/stm32l4xx_hal.o
 .ARM.attributes
                0x00000194       0x39 Drivers/STM32L4xx_HAL_Driver/stm32l4xx_hal_adc.o
 .ARM.attributes
                0x000001cd       0x39 Drivers/STM32L4xx_HAL_Driver/stm32l4xx_hal_adc_ex.o
 .ARM.attributes
                0x00000206       0x39 Drivers/STM32L4xx_HAL_Driver/stm32l4xx_hal_cortex.o
 .ARM.attributes
                0x0000023f       0x39 Drivers/STM32L4xx_HAL_Driver/stm32l4xx_hal_dma.o
 .ARM.attributes
                0x00000278       0x39 Drivers/STM32L4xx_HAL_Driver/stm32l4xx_hal_gpio.o
 .ARM.attributes
                0x000002b1       0x39 Drivers/STM32L4xx_HAL_Driver/stm32l4xx_hal_pwr_ex.o
 .ARM.attributes
                0x000002ea       0x39 Drivers/STM32L4xx_HAL_Driver/stm32l4xx_hal_rcc.o
 .ARM.attributes
                0x00000323       0x39 Drivers/STM32L4xx_HAL_Driver/stm32l4xx_hal_rcc_ex.o
 .ARM.attributes
                0x0000035c       0x39 Drivers/STM32L4xx_HAL_Driver/stm32l4xx_hal_tim.o
 .ARM.attributes
                0x00000395       0x39 Drivers/STM32L4xx_HAL_Driver/stm32l4xx_hal_tim_ex.o
 .ARM.attributes
                0x000003ce       0x39 Drivers/STM32L4xx_HAL_Driver/stm32l4xx_hal_uart.o
 .ARM.attributes
                0x00000407       0x22 c:/ac6/systemworkbench/plugins/fr.ac6.mcu.externaltools.arm-none.win32_1.17.0.201812190825/tools/compiler/bin/../lib/gcc/arm-none-eabi/7.3.1/thumb/v7e-m/fpv4-sp/hard\libgcc.a(_arm_addsubdf3.o)
 .ARM.attributes
                0x00000429       0x22 c:/ac6/systemworkbench/plugins/fr.ac6.mcu.externaltools.arm-none.win32_1.17.0.201812190825/tools/compiler/bin/../lib/gcc/arm-none-eabi/7.3.1/thumb/v7e-m/fpv4-sp/hard\libgcc.a(_arm_muldivdf3.o)
 .ARM.attributes
                0x0000044b       0x22 c:/ac6/systemworkbench/plugins/fr.ac6.mcu.externaltools.arm-none.win32_1.17.0.201812190825/tools/compiler/bin/../lib/gcc/arm-none-eabi/7.3.1/thumb/v7e-m/fpv4-sp/hard\libgcc.a(_arm_cmpdf2.o)
 .ARM.attributes
                0x0000046d       0x22 c:/ac6/systemworkbench/plugins/fr.ac6.mcu.externaltools.arm-none.win32_1.17.0.201812190825/tools/compiler/bin/../lib/gcc/arm-none-eabi/7.3.1/thumb/v7e-m/fpv4-sp/hard\libgcc.a(_arm_fixdfsi.o)
 .ARM.attributes
                0x0000048f       0x22 c:/ac6/systemworkbench/plugins/fr.ac6.mcu.externaltools.arm-none.win32_1.17.0.201812190825/tools/compiler/bin/../lib/gcc/arm-none-eabi/7.3.1/thumb/v7e-m/fpv4-sp/hard\libgcc.a(_arm_fixunsdfsi.o)
 .ARM.attributes
                0x000004b1       0x22 c:/ac6/systemworkbench/plugins/fr.ac6.mcu.externaltools.arm-none.win32_1.17.0.201812190825/tools/compiler/bin/../lib/gcc/arm-none-eabi/7.3.1/thumb/v7e-m/fpv4-sp/hard\libgcc.a(_aeabi_uldivmod.o)
 .ARM.attributes
                0x000004d3       0x34 c:/ac6/systemworkbench/plugins/fr.ac6.mcu.externaltools.arm-none.win32_1.17.0.201812190825/tools/compiler/bin/../lib/gcc/arm-none-eabi/7.3.1/thumb/v7e-m/fpv4-sp/hard\libgcc.a(_udivmoddi4.o)
 .ARM.attributes
                0x00000507       0x22 c:/ac6/systemworkbench/plugins/fr.ac6.mcu.externaltools.arm-none.win32_1.17.0.201812190825/tools/compiler/bin/../lib/gcc/arm-none-eabi/7.3.1/thumb/v7e-m/fpv4-sp/hard\libgcc.a(_dvmd_tls.o)
 .ARM.attributes
                0x00000529       0x34 c:/ac6/systemworkbench/plugins/fr.ac6.mcu.externaltools.arm-none.win32_1.17.0.201812190825/tools/compiler/bin/../lib/gcc/arm-none-eabi/7.3.1/../../../../arm-none-eabi/lib/thumb/v7e-m/fpv4-sp/hard\libc_nano.a(lib_a-init.o)
 .ARM.attributes
                0x0000055d       0x34 c:/ac6/systemworkbench/plugins/fr.ac6.mcu.externaltools.arm-none.win32_1.17.0.201812190825/tools/compiler/bin/../lib/gcc/arm-none-eabi/7.3.1/../../../../arm-none-eabi/lib/thumb/v7e-m/fpv4-sp/hard\libc_nano.a(lib_a-memset.o)
 .ARM.attributes
                0x00000591       0x22 c:/ac6/systemworkbench/plugins/fr.ac6.mcu.externaltools.arm-none.win32_1.17.0.201812190825/tools/compiler/bin/../lib/gcc/arm-none-eabi/7.3.1/thumb/v7e-m/fpv4-sp/hard/crtn.o
OUTPUT(ErDrag.elf elf32-littlearm)

.debug_line     0x00000000     0xd048
 .debug_line    0x00000000       0x87 Application/SW4STM32/startup_stm32l476xx.o
 .debug_line    0x00000087      0x9d9 Application/User/main.o
 .debug_line    0x00000a60      0x86e Application/User/stm32l4xx_hal_msp.o
 .debug_line    0x000012ce      0x6e5 Application/User/stm32l4xx_it.o
 .debug_line    0x000019b3      0x710 Drivers/CMSIS/system_stm32l4xx.o
 .debug_line    0x000020c3      0x962 Drivers/STM32L4xx_HAL_Driver/stm32l4xx_hal.o
 .debug_line    0x00002a25     0x14f0 Drivers/STM32L4xx_HAL_Driver/stm32l4xx_hal_adc.o
 .debug_line    0x00003f15     0x12c1 Drivers/STM32L4xx_HAL_Driver/stm32l4xx_hal_adc_ex.o
 .debug_line    0x000051d6      0x940 Drivers/STM32L4xx_HAL_Driver/stm32l4xx_hal_cortex.o
 .debug_line    0x00005b16      0xa70 Drivers/STM32L4xx_HAL_Driver/stm32l4xx_hal_dma.o
 .debug_line    0x00006586      0x896 Drivers/STM32L4xx_HAL_Driver/stm32l4xx_hal_gpio.o
 .debug_line    0x00006e1c      0xb47 Drivers/STM32L4xx_HAL_Driver/stm32l4xx_hal_pwr_ex.o
 .debug_line    0x00007963      0xadd Drivers/STM32L4xx_HAL_Driver/stm32l4xx_hal_rcc.o
 .debug_line    0x00008440      0xc5f Drivers/STM32L4xx_HAL_Driver/stm32l4xx_hal_rcc_ex.o
 .debug_line    0x0000909f     0x1c5d Drivers/STM32L4xx_HAL_Driver/stm32l4xx_hal_tim.o
 .debug_line    0x0000acfc      0xda9 Drivers/STM32L4xx_HAL_Driver/stm32l4xx_hal_tim_ex.o
 .debug_line    0x0000baa5     0x15a3 Drivers/STM32L4xx_HAL_Driver/stm32l4xx_hal_uart.o

.debug_info     0x00000000    0x16c45
 .debug_info    0x00000000       0x22 Application/SW4STM32/startup_stm32l476xx.o
 .debug_info    0x00000022     0x29ce Application/User/main.o
 .debug_info    0x000029f0     0x1660 Application/User/stm32l4xx_hal_msp.o
 .debug_info    0x00004050      0x4fb Application/User/stm32l4xx_it.o
 .debug_info    0x0000454b      0x6fc Drivers/CMSIS/system_stm32l4xx.o
 .debug_info    0x00004c47      0xdec Drivers/STM32L4xx_HAL_Driver/stm32l4xx_hal.o
 .debug_info    0x00005a33     0x2af5 Drivers/STM32L4xx_HAL_Driver/stm32l4xx_hal_adc.o
 .debug_info    0x00008528     0x2467 Drivers/STM32L4xx_HAL_Driver/stm32l4xx_hal_adc_ex.o
 .debug_info    0x0000a98f     0x10a2 Drivers/STM32L4xx_HAL_Driver/stm32l4xx_hal_cortex.o
 .debug_info    0x0000ba31      0x958 Drivers/STM32L4xx_HAL_Driver/stm32l4xx_hal_dma.o
 .debug_info    0x0000c389      0x990 Drivers/STM32L4xx_HAL_Driver/stm32l4xx_hal_gpio.o
 .debug_info    0x0000cd19      0xbb6 Drivers/STM32L4xx_HAL_Driver/stm32l4xx_hal_pwr_ex.o
 .debug_info    0x0000d8cf      0xf46 Drivers/STM32L4xx_HAL_Driver/stm32l4xx_hal_rcc.o
 .debug_info    0x0000e815     0x11bd Drivers/STM32L4xx_HAL_Driver/stm32l4xx_hal_rcc_ex.o
 .debug_info    0x0000f9d2     0x3c09 Drivers/STM32L4xx_HAL_Driver/stm32l4xx_hal_tim.o
 .debug_info    0x000135db     0x174a Drivers/STM32L4xx_HAL_Driver/stm32l4xx_hal_tim_ex.o
 .debug_info    0x00014d25     0x1f20 Drivers/STM32L4xx_HAL_Driver/stm32l4xx_hal_uart.o

.debug_abbrev   0x00000000     0x28d5
 .debug_abbrev  0x00000000       0x12 Application/SW4STM32/startup_stm32l476xx.o
 .debug_abbrev  0x00000012      0x361 Application/User/main.o
 .debug_abbrev  0x00000373      0x233 Application/User/stm32l4xx_hal_msp.o
 .debug_abbrev  0x000005a6      0x152 Application/User/stm32l4xx_it.o
 .debug_abbrev  0x000006f8      0x150 Drivers/CMSIS/system_stm32l4xx.o
 .debug_abbrev  0x00000848      0x291 Drivers/STM32L4xx_HAL_Driver/stm32l4xx_hal.o
 .debug_abbrev  0x00000ad9      0x2df Drivers/STM32L4xx_HAL_Driver/stm32l4xx_hal_adc.o
 .debug_abbrev  0x00000db8      0x343 Drivers/STM32L4xx_HAL_Driver/stm32l4xx_hal_adc_ex.o
 .debug_abbrev  0x000010fb      0x304 Drivers/STM32L4xx_HAL_Driver/stm32l4xx_hal_cortex.o
 .debug_abbrev  0x000013ff      0x23f Drivers/STM32L4xx_HAL_Driver/stm32l4xx_hal_dma.o
 .debug_abbrev  0x0000163e      0x1eb Drivers/STM32L4xx_HAL_Driver/stm32l4xx_hal_gpio.o
 .debug_abbrev  0x00001829      0x265 Drivers/STM32L4xx_HAL_Driver/stm32l4xx_hal_pwr_ex.o
 .debug_abbrev  0x00001a8e      0x252 Drivers/STM32L4xx_HAL_Driver/stm32l4xx_hal_rcc.o
 .debug_abbrev  0x00001ce0      0x269 Drivers/STM32L4xx_HAL_Driver/stm32l4xx_hal_rcc_ex.o
 .debug_abbrev  0x00001f49      0x341 Drivers/STM32L4xx_HAL_Driver/stm32l4xx_hal_tim.o
 .debug_abbrev  0x0000228a      0x2ed Drivers/STM32L4xx_HAL_Driver/stm32l4xx_hal_tim_ex.o
 .debug_abbrev  0x00002577      0x35e Drivers/STM32L4xx_HAL_Driver/stm32l4xx_hal_uart.o

.debug_aranges  0x00000000      0xd20
 .debug_aranges
                0x00000000       0x28 Application/SW4STM32/startup_stm32l476xx.o
 .debug_aranges
                0x00000028       0x50 Application/User/main.o
 .debug_aranges
                0x00000078       0x58 Application/User/stm32l4xx_hal_msp.o
 .debug_aranges
                0x000000d0       0x30 Application/User/stm32l4xx_it.o
 .debug_aranges
                0x00000100       0x28 Drivers/CMSIS/system_stm32l4xx.o
 .debug_aranges
                0x00000128      0x128 Drivers/STM32L4xx_HAL_Driver/stm32l4xx_hal.o
 .debug_aranges
                0x00000250       0xd0 Drivers/STM32L4xx_HAL_Driver/stm32l4xx_hal_adc.o
 .debug_aranges
                0x00000320       0xd0 Drivers/STM32L4xx_HAL_Driver/stm32l4xx_hal_adc_ex.o
 .debug_aranges
                0x000003f0       0xa8 Drivers/STM32L4xx_HAL_Driver/stm32l4xx_hal_cortex.o
 .debug_aranges
                0x00000498       0x78 Drivers/STM32L4xx_HAL_Driver/stm32l4xx_hal_dma.o
 .debug_aranges
                0x00000510       0x58 Drivers/STM32L4xx_HAL_Driver/stm32l4xx_hal_gpio.o
 .debug_aranges
                0x00000568      0x138 Drivers/STM32L4xx_HAL_Driver/stm32l4xx_hal_pwr_ex.o
 .debug_aranges
                0x000006a0       0x88 Drivers/STM32L4xx_HAL_Driver/stm32l4xx_hal_rcc.o
 .debug_aranges
                0x00000728       0xc0 Drivers/STM32L4xx_HAL_Driver/stm32l4xx_hal_rcc_ex.o
 .debug_aranges
                0x000007e8      0x288 Drivers/STM32L4xx_HAL_Driver/stm32l4xx_hal_tim.o
 .debug_aranges
                0x00000a70      0x100 Drivers/STM32L4xx_HAL_Driver/stm32l4xx_hal_tim_ex.o
 .debug_aranges
                0x00000b70      0x1b0 Drivers/STM32L4xx_HAL_Driver/stm32l4xx_hal_uart.o

.debug_str      0x00000000   0x101e54
 .debug_str     0x00000000       0x57 Application/SW4STM32/startup_stm32l476xx.o
 .debug_str     0x00000057    0xfd96e Application/User/main.o
                              0xfe0ee (size before relaxing)
 .debug_str     0x000fd9c5       0xe0 Application/User/stm32l4xx_hal_msp.o
                              0xfd197 (size before relaxing)
 .debug_str     0x000fdaa5       0x90 Application/User/stm32l4xx_it.o
                              0xfc8b2 (size before relaxing)
 .debug_str     0x000fdb35       0xcf Drivers/CMSIS/system_stm32l4xx.o
                              0xfc62e (size before relaxing)
 .debug_str     0x000fdc04      0x62c Drivers/STM32L4xx_HAL_Driver/stm32l4xx_hal.o
                              0xfd1bb (size before relaxing)
 .debug_str     0x000fe230      0xa83 Drivers/STM32L4xx_HAL_Driver/stm32l4xx_hal_adc.o
                              0xfd45e (size before relaxing)
 .debug_str     0x000fecb3      0x638 Drivers/STM32L4xx_HAL_Driver/stm32l4xx_hal_adc_ex.o
                              0xfd3b8 (size before relaxing)
 .debug_str     0x000ff2eb      0x341 Drivers/STM32L4xx_HAL_Driver/stm32l4xx_hal_cortex.o
                              0xfce86 (size before relaxing)
 .debug_str     0x000ff62c      0x20c Drivers/STM32L4xx_HAL_Driver/stm32l4xx_hal_dma.o
                              0xfc897 (size before relaxing)
 .debug_str     0x000ff838      0x1fc Drivers/STM32L4xx_HAL_Driver/stm32l4xx_hal_gpio.o
                              0xfc8b2 (size before relaxing)
 .debug_str     0x000ffa34      0x49f Drivers/STM32L4xx_HAL_Driver/stm32l4xx_hal_pwr_ex.o
                              0xfcb62 (size before relaxing)
 .debug_str     0x000ffed3      0x32f Drivers/STM32L4xx_HAL_Driver/stm32l4xx_hal_rcc.o
                              0xfcc36 (size before relaxing)
 .debug_str     0x00100202      0x3c6 Drivers/STM32L4xx_HAL_Driver/stm32l4xx_hal_rcc_ex.o
                              0xfce15 (size before relaxing)
 .debug_str     0x001005c8      0xbf0 Drivers/STM32L4xx_HAL_Driver/stm32l4xx_hal_tim.o
                              0xfd719 (size before relaxing)
 .debug_str     0x001011b8      0x47d Drivers/STM32L4xx_HAL_Driver/stm32l4xx_hal_tim_ex.o
                              0xfd039 (size before relaxing)
 .debug_str     0x00101635      0x81f Drivers/STM32L4xx_HAL_Driver/stm32l4xx_hal_uart.o
                              0xfd2a6 (size before relaxing)

.debug_ranges   0x00000000     0x1aa8
 .debug_ranges  0x00000000       0x20 Application/SW4STM32/startup_stm32l476xx.o
 .debug_ranges  0x00000020      0x100 Application/User/main.o
 .debug_ranges  0x00000120      0x170 Application/User/stm32l4xx_hal_msp.o
 .debug_ranges  0x00000290       0x20 Application/User/stm32l4xx_it.o
 .debug_ranges  0x000002b0       0x18 Drivers/CMSIS/system_stm32l4xx.o
 .debug_ranges  0x000002c8      0x118 Drivers/STM32L4xx_HAL_Driver/stm32l4xx_hal.o
 .debug_ranges  0x000003e0      0x590 Drivers/STM32L4xx_HAL_Driver/stm32l4xx_hal_adc.o
 .debug_ranges  0x00000970      0x468 Drivers/STM32L4xx_HAL_Driver/stm32l4xx_hal_adc_ex.o
 .debug_ranges  0x00000dd8      0x138 Drivers/STM32L4xx_HAL_Driver/stm32l4xx_hal_cortex.o
 .debug_ranges  0x00000f10       0xc8 Drivers/STM32L4xx_HAL_Driver/stm32l4xx_hal_dma.o
 .debug_ranges  0x00000fd8       0x60 Drivers/STM32L4xx_HAL_Driver/stm32l4xx_hal_gpio.o
 .debug_ranges  0x00001038      0x128 Drivers/STM32L4xx_HAL_Driver/stm32l4xx_hal_pwr_ex.o
 .debug_ranges  0x00001160       0xc0 Drivers/STM32L4xx_HAL_Driver/stm32l4xx_hal_rcc.o
 .debug_ranges  0x00001220       0xe8 Drivers/STM32L4xx_HAL_Driver/stm32l4xx_hal_rcc_ex.o
 .debug_ranges  0x00001308      0x4c0 Drivers/STM32L4xx_HAL_Driver/stm32l4xx_hal_tim.o
 .debug_ranges  0x000017c8      0x108 Drivers/STM32L4xx_HAL_Driver/stm32l4xx_hal_tim_ex.o
 .debug_ranges  0x000018d0      0x1d8 Drivers/STM32L4xx_HAL_Driver/stm32l4xx_hal_uart.o

.debug_loc      0x00000000     0xe1b4
 .debug_loc     0x00000000       0xc2 Application/User/main.o
 .debug_loc     0x000000c2      0x163 Application/User/stm32l4xx_hal_msp.o
 .debug_loc     0x00000225      0x1c0 Drivers/CMSIS/system_stm32l4xx.o
 .debug_loc     0x000003e5      0x210 Drivers/STM32L4xx_HAL_Driver/stm32l4xx_hal.o
 .debug_loc     0x000005f5     0x1f0b Drivers/STM32L4xx_HAL_Driver/stm32l4xx_hal_adc.o
 .debug_loc     0x00002500     0x1846 Drivers/STM32L4xx_HAL_Driver/stm32l4xx_hal_adc_ex.o
 .debug_loc     0x00003d46      0x5c9 Drivers/STM32L4xx_HAL_Driver/stm32l4xx_hal_cortex.o
 .debug_loc     0x0000430f      0x6a3 Drivers/STM32L4xx_HAL_Driver/stm32l4xx_hal_dma.o
 .debug_loc     0x000049b2      0x3d2 Drivers/STM32L4xx_HAL_Driver/stm32l4xx_hal_gpio.o
 .debug_loc     0x00004d84      0x979 Drivers/STM32L4xx_HAL_Driver/stm32l4xx_hal_pwr_ex.o
 .debug_loc     0x000056fd      0x6bb Drivers/STM32L4xx_HAL_Driver/stm32l4xx_hal_rcc.o
 .debug_loc     0x00005db8      0xe68 Drivers/STM32L4xx_HAL_Driver/stm32l4xx_hal_rcc_ex.o
 .debug_loc     0x00006c20     0x47ba Drivers/STM32L4xx_HAL_Driver/stm32l4xx_hal_tim.o
 .debug_loc     0x0000b3da     0x13dd Drivers/STM32L4xx_HAL_Driver/stm32l4xx_hal_tim_ex.o
 .debug_loc     0x0000c7b7     0x19fd Drivers/STM32L4xx_HAL_Driver/stm32l4xx_hal_uart.o

.debug_macro    0x00000000    0x2744d
 .debug_macro   0x00000000      0x24c Application/User/main.o
 .debug_macro   0x0000024c       0xc6 Application/User/main.o
 .debug_macro   0x00000312       0x2e Application/User/main.o
 .debug_macro   0x00000340       0x28 Application/User/main.o
 .debug_macro   0x00000368       0x8e Application/User/main.o
 .debug_macro   0x000003f6       0x51 Application/User/main.o
 .debug_macro   0x00000447       0xef Application/User/main.o
 .debug_macro   0x00000536      0x1df Application/User/main.o
 .debug_macro   0x00000715       0x1c Application/User/main.o
 .debug_macro   0x00000731       0x22 Application/User/main.o
 .debug_macro   0x00000753       0xdf Application/User/main.o
 .debug_macro   0x00000832     0x102d Application/User/main.o
 .debug_macro   0x0000185f      0x11f Application/User/main.o
 .debug_macro   0x0000197e    0x1a13d Application/User/main.o
 .debug_macro   0x0001babb       0x43 Application/User/main.o
 .debug_macro   0x0001bafe     0x3890 Application/User/main.o
 .debug_macro   0x0001f38e       0x5c Application/User/main.o
 .debug_macro   0x0001f3ea     0x155f Application/User/main.o
 .debug_macro   0x00020949      0x59e Application/User/main.o
 .debug_macro   0x00020ee7      0x241 Application/User/main.o
 .debug_macro   0x00021128      0x13d Application/User/main.o
 .debug_macro   0x00021265      0x18b Application/User/main.o
 .debug_macro   0x000213f0      0x26b Application/User/main.o
 .debug_macro   0x0002165b      0x241 Application/User/main.o
 .debug_macro   0x0002189c      0xf83 Application/User/main.o
 .debug_macro   0x0002281f      0x632 Application/User/main.o
 .debug_macro   0x00022e51      0x30c Application/User/main.o
 .debug_macro   0x0002315d      0x37c Application/User/main.o
 .debug_macro   0x000234d9       0xd6 Application/User/main.o
 .debug_macro   0x000235af      0x22c Application/User/main.o
 .debug_macro   0x000237db       0x5e Application/User/main.o
 .debug_macro   0x00023839       0xa5 Application/User/main.o
 .debug_macro   0x000238de      0x122 Application/User/main.o
 .debug_macro   0x00023a00      0x3e9 Application/User/main.o
 .debug_macro   0x00023de9      0xa44 Application/User/main.o
 .debug_macro   0x0002482d      0x1e7 Application/User/main.o
 .debug_macro   0x00024a14      0x59e Application/User/main.o
 .debug_macro   0x00024fb2       0x44 Application/User/main.o
 .debug_macro   0x00024ff6      0x34a Application/User/main.o
 .debug_macro   0x00025340       0xac Application/User/main.o
 .debug_macro   0x000253ec      0x21b Application/User/stm32l4xx_hal_msp.o
 .debug_macro   0x00025607      0x225 Application/User/stm32l4xx_it.o
 .debug_macro   0x0002582c      0x213 Drivers/CMSIS/system_stm32l4xx.o
 .debug_macro   0x00025a3f      0x25a Drivers/STM32L4xx_HAL_Driver/stm32l4xx_hal.o
 .debug_macro   0x00025c99      0x229 Drivers/STM32L4xx_HAL_Driver/stm32l4xx_hal_adc.o
 .debug_macro   0x00025ec2      0x218 Drivers/STM32L4xx_HAL_Driver/stm32l4xx_hal_adc_ex.o
 .debug_macro   0x000260da      0x20c Drivers/STM32L4xx_HAL_Driver/stm32l4xx_hal_cortex.o
 .debug_macro   0x000262e6      0x20c Drivers/STM32L4xx_HAL_Driver/stm32l4xx_hal_dma.o
 .debug_macro   0x000264f2      0x24b Drivers/STM32L4xx_HAL_Driver/stm32l4xx_hal_gpio.o
 .debug_macro   0x0002673d      0x230 Drivers/STM32L4xx_HAL_Driver/stm32l4xx_hal_pwr_ex.o
 .debug_macro   0x0002696d      0x24e Drivers/STM32L4xx_HAL_Driver/stm32l4xx_hal_rcc.o
 .debug_macro   0x00026bbb      0x242 Drivers/STM32L4xx_HAL_Driver/stm32l4xx_hal_rcc_ex.o
 .debug_macro   0x00026dfd      0x20d Drivers/STM32L4xx_HAL_Driver/stm32l4xx_hal_tim.o
 .debug_macro   0x0002700a      0x20c Drivers/STM32L4xx_HAL_Driver/stm32l4xx_hal_tim_ex.o
 .debug_macro   0x00027216      0x237 Drivers/STM32L4xx_HAL_Driver/stm32l4xx_hal_uart.o

.comment        0x00000000       0x7f
 .comment       0x00000000       0x7f Application/User/main.o
                                 0x80 (size before relaxing)
 .comment       0x0000007f       0x80 Application/User/stm32l4xx_hal_msp.o
 .comment       0x0000007f       0x80 Application/User/stm32l4xx_it.o
 .comment       0x0000007f       0x80 Drivers/CMSIS/system_stm32l4xx.o
 .comment       0x0000007f       0x80 Drivers/STM32L4xx_HAL_Driver/stm32l4xx_hal.o
 .comment       0x0000007f       0x80 Drivers/STM32L4xx_HAL_Driver/stm32l4xx_hal_adc.o
 .comment       0x0000007f       0x80 Drivers/STM32L4xx_HAL_Driver/stm32l4xx_hal_adc_ex.o
 .comment       0x0000007f       0x80 Drivers/STM32L4xx_HAL_Driver/stm32l4xx_hal_cortex.o
 .comment       0x0000007f       0x80 Drivers/STM32L4xx_HAL_Driver/stm32l4xx_hal_dma.o
 .comment       0x0000007f       0x80 Drivers/STM32L4xx_HAL_Driver/stm32l4xx_hal_gpio.o
 .comment       0x0000007f       0x80 Drivers/STM32L4xx_HAL_Driver/stm32l4xx_hal_pwr_ex.o
 .comment       0x0000007f       0x80 Drivers/STM32L4xx_HAL_Driver/stm32l4xx_hal_rcc.o
 .comment       0x0000007f       0x80 Drivers/STM32L4xx_HAL_Driver/stm32l4xx_hal_rcc_ex.o
 .comment       0x0000007f       0x80 Drivers/STM32L4xx_HAL_Driver/stm32l4xx_hal_tim.o
 .comment       0x0000007f       0x80 Drivers/STM32L4xx_HAL_Driver/stm32l4xx_hal_tim_ex.o
 .comment       0x0000007f       0x80 Drivers/STM32L4xx_HAL_Driver/stm32l4xx_hal_uart.o

.debug_frame    0x00000000     0x2e08
 .debug_frame   0x00000000      0x118 Application/User/main.o
 .debug_frame   0x00000118      0x134 Application/User/stm32l4xx_hal_msp.o
 .debug_frame   0x0000024c       0x40 Application/User/stm32l4xx_it.o
 .debug_frame   0x0000028c       0x48 Drivers/CMSIS/system_stm32l4xx.o
 .debug_frame   0x000002d4      0x298 Drivers/STM32L4xx_HAL_Driver/stm32l4xx_hal.o
 .debug_frame   0x0000056c      0x338 Drivers/STM32L4xx_HAL_Driver/stm32l4xx_hal_adc.o
 .debug_frame   0x000008a4      0x344 Drivers/STM32L4xx_HAL_Driver/stm32l4xx_hal_adc_ex.o
 .debug_frame   0x00000be8      0x178 Drivers/STM32L4xx_HAL_Driver/stm32l4xx_hal_cortex.o
 .debug_frame   0x00000d60      0x1a4 Drivers/STM32L4xx_HAL_Driver/stm32l4xx_hal_dma.o
 .debug_frame   0x00000f04      0x100 Drivers/STM32L4xx_HAL_Driver/stm32l4xx_hal_gpio.o
 .debug_frame   0x00001004      0x2a4 Drivers/STM32L4xx_HAL_Driver/stm32l4xx_hal_pwr_ex.o
 .debug_frame   0x000012a8      0x198 Drivers/STM32L4xx_HAL_Driver/stm32l4xx_hal_rcc.o
 .debug_frame   0x00001440      0x260 Drivers/STM32L4xx_HAL_Driver/stm32l4xx_hal_rcc_ex.o
 .debug_frame   0x000016a0      0xa74 Drivers/STM32L4xx_HAL_Driver/stm32l4xx_hal_tim.o
 .debug_frame   0x00002114      0x3c8 Drivers/STM32L4xx_HAL_Driver/stm32l4xx_hal_tim_ex.o
 .debug_frame   0x000024dc      0x678 Drivers/STM32L4xx_HAL_Driver/stm32l4xx_hal_uart.o
 .debug_frame   0x00002b54       0xac c:/ac6/systemworkbench/plugins/fr.ac6.mcu.externaltools.arm-none.win32_1.17.0.201812190825/tools/compiler/bin/../lib/gcc/arm-none-eabi/7.3.1/thumb/v7e-m/fpv4-sp/hard\libgcc.a(_arm_addsubdf3.o)
 .debug_frame   0x00002c00       0x50 c:/ac6/systemworkbench/plugins/fr.ac6.mcu.externaltools.arm-none.win32_1.17.0.201812190825/tools/compiler/bin/../lib/gcc/arm-none-eabi/7.3.1/thumb/v7e-m/fpv4-sp/hard\libgcc.a(_arm_muldivdf3.o)
 .debug_frame   0x00002c50       0xc4 c:/ac6/systemworkbench/plugins/fr.ac6.mcu.externaltools.arm-none.win32_1.17.0.201812190825/tools/compiler/bin/../lib/gcc/arm-none-eabi/7.3.1/thumb/v7e-m/fpv4-sp/hard\libgcc.a(_arm_cmpdf2.o)
 .debug_frame   0x00002d14       0x24 c:/ac6/systemworkbench/plugins/fr.ac6.mcu.externaltools.arm-none.win32_1.17.0.201812190825/tools/compiler/bin/../lib/gcc/arm-none-eabi/7.3.1/thumb/v7e-m/fpv4-sp/hard\libgcc.a(_arm_fixdfsi.o)
 .debug_frame   0x00002d38       0x24 c:/ac6/systemworkbench/plugins/fr.ac6.mcu.externaltools.arm-none.win32_1.17.0.201812190825/tools/compiler/bin/../lib/gcc/arm-none-eabi/7.3.1/thumb/v7e-m/fpv4-sp/hard\libgcc.a(_arm_fixunsdfsi.o)
 .debug_frame   0x00002d5c       0x2c c:/ac6/systemworkbench/plugins/fr.ac6.mcu.externaltools.arm-none.win32_1.17.0.201812190825/tools/compiler/bin/../lib/gcc/arm-none-eabi/7.3.1/thumb/v7e-m/fpv4-sp/hard\libgcc.a(_aeabi_uldivmod.o)
 .debug_frame   0x00002d88       0x34 c:/ac6/systemworkbench/plugins/fr.ac6.mcu.externaltools.arm-none.win32_1.17.0.201812190825/tools/compiler/bin/../lib/gcc/arm-none-eabi/7.3.1/thumb/v7e-m/fpv4-sp/hard\libgcc.a(_udivmoddi4.o)
 .debug_frame   0x00002dbc       0x2c c:/ac6/systemworkbench/plugins/fr.ac6.mcu.externaltools.arm-none.win32_1.17.0.201812190825/tools/compiler/bin/../lib/gcc/arm-none-eabi/7.3.1/../../../../arm-none-eabi/lib/thumb/v7e-m/fpv4-sp/hard\libc_nano.a(lib_a-init.o)
 .debug_frame   0x00002de8       0x20 c:/ac6/systemworkbench/plugins/fr.ac6.mcu.externaltools.arm-none.win32_1.17.0.201812190825/tools/compiler/bin/../lib/gcc/arm-none-eabi/7.3.1/../../../../arm-none-eabi/lib/thumb/v7e-m/fpv4-sp/hard\libc_nano.a(lib_a-memset.o)
